{
  "_format": "hh-sol-artifact-1",
  "contractName": "DailyGame",
  "sourceName": "contracts/Game.sol",
  "abi": [
    {
      "inputs": [
        {
          "internalType": "uint256",
          "name": "_durationHours",
          "type": "uint256"
        },
        {
          "internalType": "uint256",
          "name": "_winningAmount",
          "type": "uint256"
        }
      ],
      "stateMutability": "nonpayable",
      "type": "constructor"
    },
    {
      "anonymous": false,
      "inputs": [
        {
          "indexed": false,
          "internalType": "address",
          "name": "player",
          "type": "address"
        }
      ],
      "name": "NewPlayer",
      "type": "event"
    },
    {
      "anonymous": false,
      "inputs": [
        {
          "indexed": false,
          "internalType": "address",
          "name": "player",
          "type": "address"
        },
        {
          "indexed": false,
          "internalType": "uint256",
          "name": "points",
          "type": "uint256"
        }
      ],
      "name": "PointsAdded",
      "type": "event"
    },
    {
      "anonymous": false,
      "inputs": [
        {
          "indexed": false,
          "internalType": "address",
          "name": "winner",
          "type": "address"
        },
        {
          "indexed": false,
          "internalType": "uint256",
          "name": "points",
          "type": "uint256"
        },
        {
          "indexed": false,
          "internalType": "uint256",
          "name": "amountWon",
          "type": "uint256"
        }
      ],
      "name": "WinnerDeclared",
      "type": "event"
    },
    {
      "inputs": [
        {
          "internalType": "uint256",
          "name": "_points",
          "type": "uint256"
        }
      ],
      "name": "addPoints",
      "outputs": [],
      "stateMutability": "nonpayable",
      "type": "function"
    },
    {
      "inputs": [],
      "name": "declareWinner",
      "outputs": [],
      "stateMutability": "nonpayable",
      "type": "function"
    },
    {
      "inputs": [],
      "name": "endTime",
      "outputs": [
        {
          "internalType": "uint256",
          "name": "",
          "type": "uint256"
        }
      ],
      "stateMutability": "view",
      "type": "function"
    },
    {
      "inputs": [],
      "name": "owner",
      "outputs": [
        {
          "internalType": "address",
          "name": "",
          "type": "address"
        }
      ],
      "stateMutability": "view",
      "type": "function"
    },
    {
      "inputs": [
        {
          "internalType": "uint256",
          "name": "",
          "type": "uint256"
        }
      ],
      "name": "playerAddresses",
      "outputs": [
        {
          "internalType": "address",
          "name": "",
          "type": "address"
        }
      ],
      "stateMutability": "view",
      "type": "function"
    },
    {
      "inputs": [
        {
          "internalType": "address",
          "name": "",
          "type": "address"
        }
      ],
      "name": "players",
      "outputs": [
        {
          "internalType": "uint256",
          "name": "points",
          "type": "uint256"
        },
        {
          "internalType": "bool",
          "name": "exists",
          "type": "bool"
        }
      ],
      "stateMutability": "view",
      "type": "function"
    },
    {
      "inputs": [],
      "name": "winningAmount",
      "outputs": [
        {
          "internalType": "uint256",
          "name": "",
          "type": "uint256"
        }
      ],
      "stateMutability": "view",
      "type": "function"
    },
    {
      "inputs": [],
      "name": "withdraw",
      "outputs": [],
      "stateMutability": "nonpayable",
      "type": "function"
    },
    {
      "stateMutability": "payable",
      "type": "receive"
    }
  ],
  "bytecode": "0x60806040523480156200001157600080fd5b5060405162000f7538038062000f758339818101604052810190620000379190620000e9565b336000806101000a81548173ffffffffffffffffffffffffffffffffffffffff021916908373ffffffffffffffffffffffffffffffffffffffff160217905550610e10826200008791906200015f565b42620000949190620001aa565b600181905550806002819055505050620001e5565b600080fd5b6000819050919050565b620000c381620000ae565b8114620000cf57600080fd5b50565b600081519050620000e381620000b8565b92915050565b60008060408385031215620001035762000102620000a9565b5b60006200011385828601620000d2565b92505060206200012685828601620000d2565b9150509250929050565b7f4e487b7100000000000000000000000000000000000000000000000000000000600052601160045260246000fd5b60006200016c82620000ae565b91506200017983620000ae565b92508282026200018981620000ae565b91508282048414831517620001a357620001a262000130565b5b5092915050565b6000620001b782620000ae565b9150620001c483620000ae565b9250828201905080821115620001df57620001de62000130565b5b92915050565b610d8080620001f56000396000f3fe60806040526004361061007f5760003560e01c80633ccfd60b1161004e5780633ccfd60b146101335780638da5cb5b1461014a57806398f22c1214610175578063e2eb41ff146101a057610086565b806312fb1cbd1461008b57806314034bd2146100b457806315c6aee2146100cb5780633197cbb61461010857610086565b3661008657005b600080fd5b34801561009757600080fd5b506100b260048036038101906100ad91906108d9565b6101de565b005b3480156100c057600080fd5b506100c961042f565b005b3480156100d757600080fd5b506100f260048036038101906100ed91906108d9565b610701565b6040516100ff9190610947565b60405180910390f35b34801561011457600080fd5b5061011d610740565b60405161012a9190610971565b60405180910390f35b34801561013f57600080fd5b50610148610746565b005b34801561015657600080fd5b5061015f610843565b60405161016c9190610947565b60405180910390f35b34801561018157600080fd5b5061018a610867565b6040516101979190610971565b60405180910390f35b3480156101ac57600080fd5b506101c760048036038101906101c291906109b8565b61086d565b6040516101d5929190610a00565b60405180910390f35b6001544210610222576040517f08c379a000000000000000000000000000000000000000000000000000000000815260040161021990610a86565b60405180910390fd5b600360003373ffffffffffffffffffffffffffffffffffffffff1673ffffffffffffffffffffffffffffffffffffffff16815260200190815260200160002060010160009054906101000a900460ff1661039957604051806040016040528082815260200160011515815250600360003373ffffffffffffffffffffffffffffffffffffffff1673ffffffffffffffffffffffffffffffffffffffff1681526020019081526020016000206000820151816000015560208201518160010160006101000a81548160ff0219169083151502179055509050506004339080600181540180825580915050600190039060005260206000200160009091909190916101000a81548173ffffffffffffffffffffffffffffffffffffffff021916908373ffffffffffffffffffffffffffffffffffffffff1602179055507f52e92d4898337244a39bd42674ac561eadfd3959e947deec1c0ab82dd58b5a753360405161038c9190610947565b60405180910390a16103f3565b80600360003373ffffffffffffffffffffffffffffffffffffffff1673ffffffffffffffffffffffffffffffffffffffff16815260200190815260200160002060000160008282546103eb9190610ad5565b925050819055505b7f0fe6fcb45adaaa54f7e3491f6a7964049817f1e437f33587e634a4629fbcf3a63382604051610424929190610b09565b60405180910390a150565b60008054906101000a900473ffffffffffffffffffffffffffffffffffffffff1673ffffffffffffffffffffffffffffffffffffffff163373ffffffffffffffffffffffffffffffffffffffff16146104bd576040517f08c379a00000000000000000000000000000000000000000000000000000000081526004016104b490610ba4565b60405180910390fd5b600154421015610502576040517f08c379a00000000000000000000000000000000000000000000000000000000081526004016104f990610c10565b60405180910390fd5b6000806000905060005b6004805490508110156106035760006004828154811061052f5761052e610c30565b5b9060005260206000200160009054906101000a900473ffffffffffffffffffffffffffffffffffffffff16905082600360008373ffffffffffffffffffffffffffffffffffffffff1673ffffffffffffffffffffffffffffffffffffffff1681526020019081526020016000206000015411156105ef57600360008273ffffffffffffffffffffffffffffffffffffffff1673ffffffffffffffffffffffffffffffffffffffff1681526020019081526020016000206000015492508093505b5080806105fb90610c5f565b91505061050c565b50600073ffffffffffffffffffffffffffffffffffffffff168273ffffffffffffffffffffffffffffffffffffffff1603610673576040517f08c379a000000000000000000000000000000000000000000000000000000000815260040161066a90610cf3565b60405180910390fd5b600060025490508273ffffffffffffffffffffffffffffffffffffffff166108fc829081150290604051600060405180830381858888f193505050501580156106c0573d6000803e3d6000fd5b507fe12cfd13c68d66cef1fd6a911a8c71b2ebf3fcd260eadba4e1580ab7e654b0d78383836040516106f493929190610d13565b60405180910390a1505050565b6004818154811061071157600080fd5b906000526020600020016000915054906101000a900473ffffffffffffffffffffffffffffffffffffffff1681565b60015481565b60008054906101000a900473ffffffffffffffffffffffffffffffffffffffff1673ffffffffffffffffffffffffffffffffffffffff163373ffffffffffffffffffffffffffffffffffffffff16146107d4576040517f08c379a00000000000000000000000000000000000000000000000000000000081526004016107cb90610ba4565b60405180910390fd5b600047905060008054906101000a900473ffffffffffffffffffffffffffffffffffffffff1673ffffffffffffffffffffffffffffffffffffffff166108fc829081150290604051600060405180830381858888f1935050505015801561083f573d6000803e3d6000fd5b5050565b60008054906101000a900473ffffffffffffffffffffffffffffffffffffffff1681565b60025481565b60036020528060005260406000206000915090508060000154908060010160009054906101000a900460ff16905082565b600080fd5b6000819050919050565b6108b6816108a3565b81146108c157600080fd5b50565b6000813590506108d3816108ad565b92915050565b6000602082840312156108ef576108ee61089e565b5b60006108fd848285016108c4565b91505092915050565b600073ffffffffffffffffffffffffffffffffffffffff82169050919050565b600061093182610906565b9050919050565b61094181610926565b82525050565b600060208201905061095c6000830184610938565b92915050565b61096b816108a3565b82525050565b60006020820190506109866000830184610962565b92915050565b61099581610926565b81146109a057600080fd5b50565b6000813590506109b28161098c565b92915050565b6000602082840312156109ce576109cd61089e565b5b60006109dc848285016109a3565b91505092915050565b60008115159050919050565b6109fa816109e5565b82525050565b6000604082019050610a156000830185610962565b610a2260208301846109f1565b9392505050565b600082825260208201905092915050565b7f5468652067616d652068617320656e6465640000000000000000000000000000600082015250565b6000610a70601283610a29565b9150610a7b82610a3a565b602082019050919050565b60006020820190508181036000830152610a9f81610a63565b9050919050565b7f4e487b7100000000000000000000000000000000000000000000000000000000600052601160045260246000fd5b6000610ae0826108a3565b9150610aeb836108a3565b9250828201905080821115610b0357610b02610aa6565b5b92915050565b6000604082019050610b1e6000830185610938565b610b2b6020830184610962565b9392505050565b7f4f6e6c7920746865206f776e65722063616e2063616c6c20746869732066756e60008201527f6374696f6e000000000000000000000000000000000000000000000000000000602082015250565b6000610b8e602583610a29565b9150610b9982610b32565b604082019050919050565b60006020820190508181036000830152610bbd81610b81565b9050919050565b7f5468652067616d6520686173206e6f7420656e64656420796574000000000000600082015250565b6000610bfa601a83610a29565b9150610c0582610bc4565b602082019050919050565b60006020820190508181036000830152610c2981610bed565b9050919050565b7f4e487b7100000000000000000000000000000000000000000000000000000000600052603260045260246000fd5b6000610c6a826108a3565b91507fffffffffffffffffffffffffffffffffffffffffffffffffffffffffffffffff8203610c9c57610c9b610aa6565b5b600182019050919050565b7f4e6f20706c617965727320706172746963697061746564000000000000000000600082015250565b6000610cdd601783610a29565b9150610ce882610ca7565b602082019050919050565b60006020820190508181036000830152610d0c81610cd0565b9050919050565b6000606082019050610d286000830186610938565b610d356020830185610962565b610d426040830184610962565b94935050505056fea2646970667358221220a4d62584f373f82d82f58baee237c287f53356e05055d2acd8bfab39e95b606764736f6c63430008110033",
  "linkReferences": {},
  "deployedLinkReferences": {}
}