{
  "_format": "hh-sol-artifact-1",
  "contractName": "Lottery",
  "sourceName": "contracts/Lottery.sol",
  "abi": [
    {
      "inputs": [],
      "stateMutability": "nonpayable",
      "type": "constructor"
    },
    {
      "inputs": [],
      "name": "CloseLottery",
      "outputs": [
        {
          "internalType": "bool",
          "name": "",
          "type": "bool"
        }
      ],
      "stateMutability": "nonpayable",
      "type": "function"
    },
    {
      "inputs": [],
      "name": "getLotteryBalance",
      "outputs": [
        {
          "internalType": "uint256",
          "name": "",
          "type": "uint256"
        }
      ],
      "stateMutability": "view",
      "type": "function"
    },
    {
      "inputs": [],
      "name": "getNumberOfPlayers",
      "outputs": [
        {
          "internalType": "uint256",
          "name": "",
          "type": "uint256"
        }
      ],
      "stateMutability": "view",
      "type": "function"
    },
    {
      "inputs": [],
      "name": "isOpened",
      "outputs": [
        {
          "internalType": "bool",
          "name": "",
          "type": "bool"
        }
      ],
      "stateMutability": "view",
      "type": "function"
    },
    {
      "inputs": [],
      "name": "manager",
      "outputs": [
        {
          "internalType": "address",
          "name": "",
          "type": "address"
        }
      ],
      "stateMutability": "view",
      "type": "function"
    },
    {
      "inputs": [],
      "name": "openLottery",
      "outputs": [
        {
          "internalType": "bool",
          "name": "",
          "type": "bool"
        }
      ],
      "stateMutability": "nonpayable",
      "type": "function"
    },
    {
      "inputs": [],
      "name": "playLottery",
      "outputs": [
        {
          "internalType": "bool",
          "name": "",
          "type": "bool"
        }
      ],
      "stateMutability": "payable",
      "type": "function"
    },
    {
      "inputs": [
        {
          "internalType": "uint256",
          "name": "",
          "type": "uint256"
        }
      ],
      "name": "players",
      "outputs": [
        {
          "internalType": "address",
          "name": "",
          "type": "address"
        }
      ],
      "stateMutability": "view",
      "type": "function"
    },
    {
      "inputs": [],
      "name": "ticketPrice",
      "outputs": [
        {
          "internalType": "uint256",
          "name": "",
          "type": "uint256"
        }
      ],
      "stateMutability": "view",
      "type": "function"
    },
    {
      "inputs": [],
      "name": "winner",
      "outputs": [
        {
          "internalType": "address",
          "name": "",
          "type": "address"
        }
      ],
      "stateMutability": "view",
      "type": "function"
    }
  ],
  "bytecode": "0x608060405234801561001057600080fd5b50336000806101000a81548173ffffffffffffffffffffffffffffffffffffffff021916908373ffffffffffffffffffffffffffffffffffffffff160217905550670de0b6b3a76400006001819055506001600260006101000a81548160ff0219169083151502179055506108258061008a6000396000f3fe6080604052600436106100915760003560e01c80639dfecdcc116100595780639dfecdcc1461016d578063d4cd77a314610198578063dfbf53ae146101b6578063f71d96cb146101e1578063fd6673f51461021e57610091565b8063041434c5146100965780631209b1f6146100c1578063481c6a75146100ec57806360654e4714610117578063692aa97e14610142575b600080fd5b3480156100a257600080fd5b506100ab610249565b6040516100b8919061056e565b60405180910390f35b3480156100cd57600080fd5b506100d66103b2565b6040516100e391906105a2565b60405180910390f35b3480156100f857600080fd5b506101016103b8565b60405161010e91906105fe565b60405180910390f35b34801561012357600080fd5b5061012c6103dc565b60405161013991906105a2565b60405180910390f35b34801561014e57600080fd5b506101576103e4565b604051610164919061056e565b60405180910390f35b34801561017957600080fd5b506101826103f7565b60405161018f919061056e565b60405180910390f35b6101a0610429565b6040516101ad919061056e565b60405180910390f35b3480156101c257600080fd5b506101cb6104d9565b6040516101d891906105fe565b60405180910390f35b3480156101ed57600080fd5b506102086004803603810190610203919061064a565b6104ff565b60405161021591906105fe565b60405180910390f35b34801561022a57600080fd5b5061023361053e565b60405161024091906105a2565b60405180910390f35b600060011515600260009054906101000a900460ff161515146102a1576040517f08c379a0000000000000000000000000000000000000000000000000000000008152600401610298906106d4565b60405180910390fd5b60006003805490506102b161054b565b6102bb9190610723565b90506000600382815481106102d3576102d2610754565b5b9060005260206000200160009054906101000a900473ffffffffffffffffffffffffffffffffffffffff16905080600260016101000a81548173ffffffffffffffffffffffffffffffffffffffff021916908373ffffffffffffffffffffffffffffffffffffffff16021790555060004790508173ffffffffffffffffffffffffffffffffffffffff166108fc829081150290604051600060405180830381858888f1935050505015801561038c573d6000803e3d6000fd5b506000600260006101000a81548160ff0219169083151502179055506001935050505090565b60015481565b60008054906101000a900473ffffffffffffffffffffffffffffffffffffffff1681565b600047905090565b600260009054906101000a900460ff1681565b60006001600260006101000a81548160ff021916908315150217905550600260009054906101000a900460ff16905090565b6000600154341461046f576040517f08c379a0000000000000000000000000000000000000000000000000000000008152600401610466906107cf565b60405180910390fd5b6003339080600181540180825580915050600190039060005260206000200160009091909190916101000a81548173ffffffffffffffffffffffffffffffffffffffff021916908373ffffffffffffffffffffffffffffffffffffffff1602179055506001905090565b600260019054906101000a900473ffffffffffffffffffffffffffffffffffffffff1681565b6003818154811061050f57600080fd5b906000526020600020016000915054906101000a900473ffffffffffffffffffffffffffffffffffffffff1681565b6000600380549050905090565b600042905090565b60008115159050919050565b61056881610553565b82525050565b6000602082019050610583600083018461055f565b92915050565b6000819050919050565b61059c81610589565b82525050565b60006020820190506105b76000830184610593565b92915050565b600073ffffffffffffffffffffffffffffffffffffffff82169050919050565b60006105e8826105bd565b9050919050565b6105f8816105dd565b82525050565b600060208201905061061360008301846105ef565b92915050565b600080fd5b61062781610589565b811461063257600080fd5b50565b6000813590506106448161061e565b92915050565b6000602082840312156106605761065f610619565b5b600061066e84828501610635565b91505092915050565b600082825260208201905092915050565b7f416c726561647920636c6f736564210000000000000000000000000000000000600082015250565b60006106be600f83610677565b91506106c982610688565b602082019050919050565b600060208201905081810360008301526106ed816106b1565b9050919050565b7f4e487b7100000000000000000000000000000000000000000000000000000000600052601260045260246000fd5b600061072e82610589565b915061073983610589565b925082610749576107486106f4565b5b828206905092915050565b7f4e487b7100000000000000000000000000000000000000000000000000000000600052603260045260246000fd5b7f496e76616c696420426574205072696365000000000000000000000000000000600082015250565b60006107b9601183610677565b91506107c482610783565b602082019050919050565b600060208201905081810360008301526107e8816107ac565b905091905056fea2646970667358221220e7e87226cbe39fcf46922d27af38a7252abc209809f9ca931026a4a369a0429264736f6c63430008110033",
  "linkReferences": {},
  "deployedLinkReferences": {}
}